{"abi":[{"type":"constructor","inputs":[{"name":"name","type":"string","internalType":"string"},{"name":"symbol","type":"string","internalType":"string"},{"name":"initialOwner","type":"address","internalType":"address"}],"stateMutability":"nonpayable"},{"type":"function","name":"DOMAIN_SEPARATOR","inputs":[],"outputs":[{"name":"","type":"bytes32","internalType":"bytes32"}],"stateMutability":"view"},{"type":"function","name":"TOTAL_SUPPLY","inputs":[],"outputs":[{"name":"","type":"uint256","internalType":"uint256"}],"stateMutability":"view"},{"type":"function","name":"allowance","inputs":[{"name":"owner","type":"address","internalType":"address"},{"name":"spender","type":"address","internalType":"address"}],"outputs":[{"name":"","type":"uint256","internalType":"uint256"}],"stateMutability":"view"},{"type":"function","name":"approve","inputs":[{"name":"spender","type":"address","internalType":"address"},{"name":"value","type":"uint256","internalType":"uint256"}],"outputs":[{"name":"","type":"bool","internalType":"bool"}],"stateMutability":"nonpayable"},{"type":"function","name":"balanceOf","inputs":[{"name":"account","type":"address","internalType":"address"}],"outputs":[{"name":"","type":"uint256","internalType":"uint256"}],"stateMutability":"view"},{"type":"function","name":"buyTokens","inputs":[{"name":"tokenAmount","type":"uint256","internalType":"uint256"}],"outputs":[],"stateMutability":"payable"},{"type":"function","name":"decimals","inputs":[],"outputs":[{"name":"","type":"uint8","internalType":"uint8"}],"stateMutability":"view"},{"type":"function","name":"eip712Domain","inputs":[],"outputs":[{"name":"fields","type":"bytes1","internalType":"bytes1"},{"name":"name","type":"string","internalType":"string"},{"name":"version","type":"string","internalType":"string"},{"name":"chainId","type":"uint256","internalType":"uint256"},{"name":"verifyingContract","type":"address","internalType":"address"},{"name":"salt","type":"bytes32","internalType":"bytes32"},{"name":"extensions","type":"uint256[]","internalType":"uint256[]"}],"stateMutability":"view"},{"type":"function","name":"getPrice","inputs":[],"outputs":[{"name":"","type":"uint256","internalType":"uint256"}],"stateMutability":"pure"},{"type":"function","name":"name","inputs":[],"outputs":[{"name":"","type":"string","internalType":"string"}],"stateMutability":"view"},{"type":"function","name":"nonces","inputs":[{"name":"owner","type":"address","internalType":"address"}],"outputs":[{"name":"","type":"uint256","internalType":"uint256"}],"stateMutability":"view"},{"type":"function","name":"owner","inputs":[],"outputs":[{"name":"","type":"address","internalType":"address"}],"stateMutability":"view"},{"type":"function","name":"permit","inputs":[{"name":"owner","type":"address","internalType":"address"},{"name":"spender","type":"address","internalType":"address"},{"name":"value","type":"uint256","internalType":"uint256"},{"name":"deadline","type":"uint256","internalType":"uint256"},{"name":"v","type":"uint8","internalType":"uint8"},{"name":"r","type":"bytes32","internalType":"bytes32"},{"name":"s","type":"bytes32","internalType":"bytes32"}],"outputs":[],"stateMutability":"nonpayable"},{"type":"function","name":"remainingTokens","inputs":[],"outputs":[{"name":"","type":"uint256","internalType":"uint256"}],"stateMutability":"view"},{"type":"function","name":"renounceOwnership","inputs":[],"outputs":[],"stateMutability":"nonpayable"},{"type":"function","name":"symbol","inputs":[],"outputs":[{"name":"","type":"string","internalType":"string"}],"stateMutability":"view"},{"type":"function","name":"totalSold","inputs":[],"outputs":[{"name":"","type":"uint256","internalType":"uint256"}],"stateMutability":"view"},{"type":"function","name":"totalSupply","inputs":[],"outputs":[{"name":"","type":"uint256","internalType":"uint256"}],"stateMutability":"view"},{"type":"function","name":"transfer","inputs":[{"name":"to","type":"address","internalType":"address"},{"name":"value","type":"uint256","internalType":"uint256"}],"outputs":[{"name":"","type":"bool","internalType":"bool"}],"stateMutability":"nonpayable"},{"type":"function","name":"transferFrom","inputs":[{"name":"from","type":"address","internalType":"address"},{"name":"to","type":"address","internalType":"address"},{"name":"value","type":"uint256","internalType":"uint256"}],"outputs":[{"name":"","type":"bool","internalType":"bool"}],"stateMutability":"nonpayable"},{"type":"function","name":"transferOwnership","inputs":[{"name":"newOwner","type":"address","internalType":"address"}],"outputs":[],"stateMutability":"nonpayable"},{"type":"function","name":"withdraw","inputs":[],"outputs":[],"stateMutability":"nonpayable"},{"type":"event","name":"Approval","inputs":[{"name":"owner","type":"address","indexed":true,"internalType":"address"},{"name":"spender","type":"address","indexed":true,"internalType":"address"},{"name":"value","type":"uint256","indexed":false,"internalType":"uint256"}],"anonymous":false},{"type":"event","name":"EIP712DomainChanged","inputs":[],"anonymous":false},{"type":"event","name":"OwnershipTransferred","inputs":[{"name":"previousOwner","type":"address","indexed":true,"internalType":"address"},{"name":"newOwner","type":"address","indexed":true,"internalType":"address"}],"anonymous":false},{"type":"event","name":"TokensPurchased","inputs":[{"name":"buyer","type":"address","indexed":true,"internalType":"address"},{"name":"amount","type":"uint256","indexed":false,"internalType":"uint256"},{"name":"ethPaid","type":"uint256","indexed":false,"internalType":"uint256"}],"anonymous":false},{"type":"event","name":"Transfer","inputs":[{"name":"from","type":"address","indexed":true,"internalType":"address"},{"name":"to","type":"address","indexed":true,"internalType":"address"},{"name":"value","type":"uint256","indexed":false,"internalType":"uint256"}],"anonymous":false},{"type":"error","name":"ECDSAInvalidSignature","inputs":[]},{"type":"error","name":"ECDSAInvalidSignatureLength","inputs":[{"name":"length","type":"uint256","internalType":"uint256"}]},{"type":"error","name":"ECDSAInvalidSignatureS","inputs":[{"name":"s","type":"bytes32","internalType":"bytes32"}]},{"type":"error","name":"ERC20InsufficientAllowance","inputs":[{"name":"spender","type":"address","internalType":"address"},{"name":"allowance","type":"uint256","internalType":"uint256"},{"name":"needed","type":"uint256","internalType":"uint256"}]},{"type":"error","name":"ERC20InsufficientBalance","inputs":[{"name":"sender","type":"address","internalType":"address"},{"name":"balance","type":"uint256","internalType":"uint256"},{"name":"needed","type":"uint256","internalType":"uint256"}]},{"type":"error","name":"ERC20InvalidApprover","inputs":[{"name":"approver","type":"address","internalType":"address"}]},{"type":"error","name":"ERC20InvalidReceiver","inputs":[{"name":"receiver","type":"address","internalType":"address"}]},{"type":"error","name":"ERC20InvalidSender","inputs":[{"name":"sender","type":"address","internalType":"address"}]},{"type":"error","name":"ERC20InvalidSpender","inputs":[{"name":"spender","type":"address","internalType":"address"}]},{"type":"error","name":"ERC2612ExpiredSignature","inputs":[{"name":"deadline","type":"uint256","internalType":"uint256"}]},{"type":"error","name":"ERC2612InvalidSigner","inputs":[{"name":"signer","type":"address","internalType":"address"},{"name":"owner","type":"address","internalType":"address"}]},{"type":"error","name":"InvalidAccountNonce","inputs":[{"name":"account","type":"address","internalType":"address"},{"name":"currentNonce","type":"uint256","internalType":"uint256"}]},{"type":"error","name":"InvalidShortString","inputs":[]},{"type":"error","name":"OwnableInvalidOwner","inputs":[{"name":"owner","type":"address","internalType":"address"}]},{"type":"error","name":"OwnableUnauthorizedAccount","inputs":[{"name":"account","type":"address","internalType":"address"}]},{"type":"error","name":"StringTooLong","inputs":[{"name":"str","type":"string","internalType":"string"}]}],"bytecode":{"object":"0x610160604052348015610010575f5ffd5b5060405161326d38038061326d833981810160405281019061003291906107fb565b8083806040518060400160405280600181526020017f31000000000000000000000000000000000000000000000000000000000000008152508686816003908161007c9190610aa4565b50806004908161008c9190610aa4565b5050506100a36005836101de60201b90919060201c565b61012081815250506100bf6006826101de60201b90919060201c565b6101408181525050818051906020012060e08181525050808051906020012061010081815250504660a081815250506100fc61022b60201b60201c565b608081815250503073ffffffffffffffffffffffffffffffffffffffff1660c08173ffffffffffffffffffffffffffffffffffffffff16815250505050505f73ffffffffffffffffffffffffffffffffffffffff168173ffffffffffffffffffffffffffffffffffffffff16036101aa575f6040517f1e4fbdf70000000000000000000000000000000000000000000000000000000081526004016101a19190610b82565b60405180910390fd5b6101b98161028560201b60201c565b506101d6306b204fce5e3e2502611000000061034860201b60201c565b505050610dbc565b5f6020835110156101ff576101f8836103cd60201b60201c565b9050610225565b8261020f8361043260201b60201c565b5f01908161021d9190610aa4565b5060ff5f1b90505b92915050565b5f7f8b73c3c69bb8fe3d512ecc4cf759cc79239f7b179b0ffacaa9a75d522b39400f60e05161010051463060405160200161026a959493929190610bc2565b60405160208183030381529060405280519060200120905090565b5f60085f9054906101000a900473ffffffffffffffffffffffffffffffffffffffff1690508160085f6101000a81548173ffffffffffffffffffffffffffffffffffffffff021916908373ffffffffffffffffffffffffffffffffffffffff1602179055508173ffffffffffffffffffffffffffffffffffffffff168173ffffffffffffffffffffffffffffffffffffffff167f8be0079c531659141344cd1fd0a4f28419497f9722a3daafe3b4186f6b6457e060405160405180910390a35050565b5f73ffffffffffffffffffffffffffffffffffffffff168273ffffffffffffffffffffffffffffffffffffffff16036103b8575f6040517fec442f050000000000000000000000000000000000000000000000000000000081526004016103af9190610b82565b60405180910390fd5b6103c95f838361043b60201b60201c565b5050565b5f5f829050601f8151111561041957826040517f305a27a90000000000000000000000000000000000000000000000000000000081526004016104109190610c5b565b60405180910390fd5b80518161042590610ca8565b5f1c175f1b915050919050565b5f819050919050565b5f73ffffffffffffffffffffffffffffffffffffffff168373ffffffffffffffffffffffffffffffffffffffff160361048b578060025f82825461047f9190610d3b565b92505081905550610559565b5f5f5f8573ffffffffffffffffffffffffffffffffffffffff1673ffffffffffffffffffffffffffffffffffffffff1681526020019081526020015f2054905081811015610514578381836040517fe450d38c00000000000000000000000000000000000000000000000000000000815260040161050b93929190610d6e565b60405180910390fd5b8181035f5f8673ffffffffffffffffffffffffffffffffffffffff1673ffffffffffffffffffffffffffffffffffffffff1681526020019081526020015f2081905550505b5f73ffffffffffffffffffffffffffffffffffffffff168273ffffffffffffffffffffffffffffffffffffffff16036105a0578060025f82825403925050819055506105ea565b805f5f8473ffffffffffffffffffffffffffffffffffffffff1673ffffffffffffffffffffffffffffffffffffffff1681526020019081526020015f205f82825401925050819055505b8173ffffffffffffffffffffffffffffffffffffffff168373ffffffffffffffffffffffffffffffffffffffff167fddf252ad1be2c89b69c2b068fc378daa952ba7f163c4a11628f55a4df523b3ef836040516106479190610da3565b60405180910390a3505050565b5f604051905090565b5f5ffd5b5f5ffd5b5f5ffd5b5f5ffd5b5f601f19601f8301169050919050565b7f4e487b71000000000000000000000000000000000000000000000000000000005f52604160045260245ffd5b6106b38261066d565b810181811067ffffffffffffffff821117156106d2576106d161067d565b5b80604052505050565b5f6106e4610654565b90506106f082826106aa565b919050565b5f67ffffffffffffffff82111561070f5761070e61067d565b5b6107188261066d565b9050602081019050919050565b8281835e5f83830152505050565b5f610745610740846106f5565b6106db565b90508281526020810184848401111561076157610760610669565b5b61076c848285610725565b509392505050565b5f82601f83011261078857610787610665565b5b8151610798848260208601610733565b91505092915050565b5f73ffffffffffffffffffffffffffffffffffffffff82169050919050565b5f6107ca826107a1565b9050919050565b6107da816107c0565b81146107e4575f5ffd5b50565b5f815190506107f5816107d1565b92915050565b5f5f5f606084860312156108125761081161065d565b5b5f84015167ffffffffffffffff81111561082f5761082e610661565b5b61083b86828701610774565b935050602084015167ffffffffffffffff81111561085c5761085b610661565b5b61086886828701610774565b9250506040610879868287016107e7565b9150509250925092565b5f81519050919050565b7f4e487b71000000000000000000000000000000000000000000000000000000005f52602260045260245ffd5b5f60028204905060018216806108d157607f821691505b6020821081036108e4576108e361088d565b5b50919050565b5f819050815f5260205f209050919050565b5f6020601f8301049050919050565b5f82821b905092915050565b5f600883026109467fffffffffffffffffffffffffffffffffffffffffffffffffffffffffffffffff8261090b565b610950868361090b565b95508019841693508086168417925050509392505050565b5f819050919050565b5f819050919050565b5f61099461098f61098a84610968565b610971565b610968565b9050919050565b5f819050919050565b6109ad8361097a565b6109c16109b98261099b565b848454610917565b825550505050565b5f5f905090565b6109d86109c9565b6109e38184846109a4565b505050565b5f5b82811015610a09576109fe5f8284016109d0565b6001810190506109ea565b505050565b601f821115610a5c5782821115610a5b57610a28816108ea565b610a31836108fc565b610a3a856108fc565b6020861015610a47575f90505b808301610a56828403826109e8565b505050505b5b505050565b5f82821c905092915050565b5f610a7c5f1984600802610a61565b1980831691505092915050565b5f610a948383610a6d565b9150826002028217905092915050565b610aad82610883565b67ffffffffffffffff811115610ac657610ac561067d565b5b610ad082546108ba565b610adb828285610a0e565b5f60209050601f831160018114610b0c575f8415610afa578287015190505b610b048582610a89565b865550610b6b565b601f198416610b1a866108ea565b5f5b82811015610b4157848901518255600182019150602085019450602081019050610b1c565b86831015610b5e5784890151610b5a601f891682610a6d565b8355505b6001600288020188555050505b505050505050565b610b7c816107c0565b82525050565b5f602082019050610b955f830184610b73565b92915050565b5f819050919050565b610bad81610b9b565b82525050565b610bbc81610968565b82525050565b5f60a082019050610bd55f830188610ba4565b610be26020830187610ba4565b610bef6040830186610ba4565b610bfc6060830185610bb3565b610c096080830184610b73565b9695505050505050565b5f82825260208201905092915050565b5f610c2d82610883565b610c378185610c13565b9350610c47818560208601610725565b610c508161066d565b840191505092915050565b5f6020820190508181035f830152610c738184610c23565b905092915050565b5f81519050919050565b5f819050602082019050919050565b5f610c9f8251610b9b565b80915050919050565b5f610cb282610c7b565b82610cbc84610c85565b9050610cc781610c94565b92506020821015610d0757610d027fffffffffffffffffffffffffffffffffffffffffffffffffffffffffffffffff8360200360080261090b565b831692505b5050919050565b7f4e487b71000000000000000000000000000000000000000000000000000000005f52601160045260245ffd5b5f610d4582610968565b9150610d5083610968565b9250828201905080821115610d6857610d67610d0e565b5b92915050565b5f606082019050610d815f830186610b73565b610d8e6020830185610bb3565b610d9b6040830184610bb3565b949350505050565b5f602082019050610db65f830184610bb3565b92915050565b60805160a05160c05160e051610100516101205161014051612460610e0d5f395f6110c601525f61108b01525f6115bf01525f61159e01525f610e3f01525f610e9501525f610ebe01526124605ff3fe608060405260043610610134575f3560e01c806384b0196e116100aa57806398d5fdca1161006e57806398d5fdca146103f0578063a9059cbb1461041a578063bf58390314610456578063d505accf14610480578063dd62ed3e146104a8578063f2fde38b146104e457610134565b806384b0196e146103185780638da5cb5b14610348578063902d55a5146103725780639106d7ba1461039c57806395d89b41146103c657610134565b80633610724e116100fc5780633610724e1461022e5780633644e5151461024a5780633ccfd60b1461027457806370a082311461028a578063715018a6146102c65780637ecebe00146102dc57610134565b806306fdde0314610138578063095ea7b31461016257806318160ddd1461019e57806323b872dd146101c8578063313ce56714610204575b5f5ffd5b348015610143575f5ffd5b5061014c61050c565b6040516101599190611a75565b60405180910390f35b34801561016d575f5ffd5b5061018860048036038101906101839190611b26565b61059c565b6040516101959190611b7e565b60405180910390f35b3480156101a9575f5ffd5b506101b26105be565b6040516101bf9190611ba6565b60405180910390f35b3480156101d3575f5ffd5b506101ee60048036038101906101e99190611bbf565b6105c7565b6040516101fb9190611b7e565b60405180910390f35b34801561020f575f5ffd5b506102186105f5565b6040516102259190611c2a565b60405180910390f35b61024860048036038101906102439190611c43565b6105fd565b005b348015610255575f5ffd5b5061025e6107da565b60405161026b9190611c86565b60405180910390f35b34801561027f575f5ffd5b506102886107e8565b005b348015610295575f5ffd5b506102b060048036038101906102ab9190611c9f565b61083d565b6040516102bd9190611ba6565b60405180910390f35b3480156102d1575f5ffd5b506102da610882565b005b3480156102e7575f5ffd5b5061030260048036038101906102fd9190611c9f565b610895565b60405161030f9190611ba6565b60405180910390f35b348015610323575f5ffd5b5061032c6108a6565b60405161033f9796959493929190611dca565b60405180910390f35b348015610353575f5ffd5b5061035c61094b565b6040516103699190611e4c565b60405180910390f35b34801561037d575f5ffd5b50610386610973565b6040516103939190611ba6565b60405180910390f35b3480156103a7575f5ffd5b506103b0610983565b6040516103bd9190611ba6565b60405180910390f35b3480156103d1575f5ffd5b506103da610989565b6040516103e79190611a75565b60405180910390f35b3480156103fb575f5ffd5b50610404610a19565b6040516104119190611ba6565b60405180910390f35b348015610425575f5ffd5b50610440600480360381019061043b9190611b26565b610a24565b60405161044d9190611b7e565b60405180910390f35b348015610461575f5ffd5b5061046a610a46565b6040516104779190611ba6565b60405180910390f35b34801561048b575f5ffd5b506104a660048036038101906104a19190611eb9565b610a55565b005b3480156104b3575f5ffd5b506104ce60048036038101906104c99190611f56565b610b9a565b6040516104db9190611ba6565b60405180910390f35b3480156104ef575f5ffd5b5061050a60048036038101906105059190611c9f565b610c1c565b005b60606003805461051b90611fc1565b80601f016020809104026020016040519081016040528092919081815260200182805461054790611fc1565b80156105925780601f1061056957610100808354040283529160200191610592565b820191905f5260205f20905b81548152906001019060200180831161057557829003601f168201915b5050505050905090565b5f5f6105a6610ca0565b90506105b3818585610ca7565b600191505092915050565b5f600254905090565b5f5f6105d1610ca0565b90506105de858285610cb9565b6105e9858585610d4c565b60019150509392505050565b5f6012905090565b5f811161063f576040517f08c379a00000000000000000000000000000000000000000000000000000000081526004016106369061203b565b60405180910390fd5b5f670de0b6b3a7640000826106549190612086565b905061065f3061083d565b8111156106a1576040517f08c379a000000000000000000000000000000000000000000000000000000000815260040161069890612111565b60405180910390fd5b5f6305f5e100670de0b6b3a7640000846106bb9190612086565b6106c5919061215c565b90508034101561070a576040517f08c379a0000000000000000000000000000000000000000000000000000000008152600401610701906121d6565b60405180910390fd5b80341115610762573373ffffffffffffffffffffffffffffffffffffffff166108fc823461073891906121f4565b90811502906040515f60405180830381858888f19350505050158015610760573d5f5f3e3d5ffd5b505b61076d303384610d4c565b8160095f82825461077e9190612227565b925050819055503373ffffffffffffffffffffffffffffffffffffffff167f8fafebcaf9d154343dad25669bfa277f4fbacd7ac6b0c4fed522580e040a0f3383836040516107cd92919061225a565b60405180910390a2505050565b5f6107e3610e3c565b905090565b6107f0610ef2565b6107f861094b565b73ffffffffffffffffffffffffffffffffffffffff166108fc4790811502906040515f60405180830381858888f1935050505015801561083a573d5f5f3e3d5ffd5b50565b5f5f5f8373ffffffffffffffffffffffffffffffffffffffff1673ffffffffffffffffffffffffffffffffffffffff1681526020019081526020015f20549050919050565b61088a610ef2565b6108935f610f79565b565b5f61089f8261103c565b9050919050565b5f6060805f5f5f60606108b7611082565b6108bf6110bd565b46305f5f1b5f67ffffffffffffffff8111156108de576108dd612281565b5b60405190808252806020026020018201604052801561090c5781602001602082028036833780820191505090505b507f0f00000000000000000000000000000000000000000000000000000000000000959493929190965096509650965096509650965090919293949596565b5f60085f9054906101000a900473ffffffffffffffffffffffffffffffffffffffff16905090565b6b204fce5e3e2502611000000081565b60095481565b60606004805461099890611fc1565b80601f01602080910402602001604051908101604052809291908181526020018280546109c490611fc1565b8015610a0f5780601f106109e657610100808354040283529160200191610a0f565b820191905f5260205f20905b8154815290600101906020018083116109f257829003601f168201915b5050505050905090565b5f6305f5e100905090565b5f5f610a2e610ca0565b9050610a3b818585610d4c565b600191505092915050565b5f610a503061083d565b905090565b83421115610a9a57836040517f62791302000000000000000000000000000000000000000000000000000000008152600401610a919190611ba6565b60405180910390fd5b5f7f6e71edae12b1b97f4d1f60370fef10105fa2faae0126114a169c64845d6126c9888888610ac88c6110f8565b89604051602001610ade969594939291906122ae565b6040516020818303038152906040528051906020012090505f610b008261114b565b90505f610b0f82878787611164565b90508973ffffffffffffffffffffffffffffffffffffffff168173ffffffffffffffffffffffffffffffffffffffff1614610b8357808a6040517f4b800e46000000000000000000000000000000000000000000000000000000008152600401610b7a92919061230d565b60405180910390fd5b610b8e8a8a8a610ca7565b50505050505050505050565b5f60015f8473ffffffffffffffffffffffffffffffffffffffff1673ffffffffffffffffffffffffffffffffffffffff1681526020019081526020015f205f8373ffffffffffffffffffffffffffffffffffffffff1673ffffffffffffffffffffffffffffffffffffffff1681526020019081526020015f2054905092915050565b610c24610ef2565b5f73ffffffffffffffffffffffffffffffffffffffff168173ffffffffffffffffffffffffffffffffffffffff1603610c94575f6040517f1e4fbdf7000000000000000000000000000000000000000000000000000000008152600401610c8b9190611e4c565b60405180910390fd5b610c9d81610f79565b50565b5f33905090565b610cb48383836001611192565b505050565b5f610cc48484610b9a565b90507fffffffffffffffffffffffffffffffffffffffffffffffffffffffffffffffff811015610d465781811015610d37578281836040517ffb8f41b2000000000000000000000000000000000000000000000000000000008152600401610d2e93929190612334565b60405180910390fd5b610d4584848484035f611192565b5b50505050565b5f73ffffffffffffffffffffffffffffffffffffffff168373ffffffffffffffffffffffffffffffffffffffff1603610dbc575f6040517f96c6fd1e000000000000000000000000000000000000000000000000000000008152600401610db39190611e4c565b60405180910390fd5b5f73ffffffffffffffffffffffffffffffffffffffff168273ffffffffffffffffffffffffffffffffffffffff1603610e2c575f6040517fec442f05000000000000000000000000000000000000000000000000000000008152600401610e239190611e4c565b60405180910390fd5b610e37838383611361565b505050565b5f7f000000000000000000000000000000000000000000000000000000000000000073ffffffffffffffffffffffffffffffffffffffff163073ffffffffffffffffffffffffffffffffffffffff16148015610eb757507f000000000000000000000000000000000000000000000000000000000000000046145b15610ee4577f00000000000000000000000000000000000000000000000000000000000000009050610eef565b610eec61157a565b90505b90565b610efa610ca0565b73ffffffffffffffffffffffffffffffffffffffff16610f1861094b565b73ffffffffffffffffffffffffffffffffffffffff1614610f7757610f3b610ca0565b6040517f118cdaa7000000000000000000000000000000000000000000000000000000008152600401610f6e9190611e4c565b60405180910390fd5b565b5f60085f9054906101000a900473ffffffffffffffffffffffffffffffffffffffff1690508160085f6101000a81548173ffffffffffffffffffffffffffffffffffffffff021916908373ffffffffffffffffffffffffffffffffffffffff1602179055508173ffffffffffffffffffffffffffffffffffffffff168173ffffffffffffffffffffffffffffffffffffffff167f8be0079c531659141344cd1fd0a4f28419497f9722a3daafe3b4186f6b6457e060405160405180910390a35050565b5f60075f8373ffffffffffffffffffffffffffffffffffffffff1673ffffffffffffffffffffffffffffffffffffffff1681526020019081526020015f20549050919050565b60606110b860057f000000000000000000000000000000000000000000000000000000000000000061160f90919063ffffffff16565b905090565b60606110f360067f000000000000000000000000000000000000000000000000000000000000000061160f90919063ffffffff16565b905090565b5f60075f8373ffffffffffffffffffffffffffffffffffffffff1673ffffffffffffffffffffffffffffffffffffffff1681526020019081526020015f205f815480929190600101919050559050919050565b5f61115d611157610e3c565b836116bc565b9050919050565b5f5f5f5f611174888888886116fc565b92509250925061118482826117e3565b829350505050949350505050565b5f73ffffffffffffffffffffffffffffffffffffffff168473ffffffffffffffffffffffffffffffffffffffff1603611202575f6040517fe602df050000000000000000000000000000000000000000000000000000000081526004016111f99190611e4c565b60405180910390fd5b5f73ffffffffffffffffffffffffffffffffffffffff168373ffffffffffffffffffffffffffffffffffffffff1603611272575f6040517f94280d620000000000000000000000000000000000000000000000000000000081526004016112699190611e4c565b60405180910390fd5b8160015f8673ffffffffffffffffffffffffffffffffffffffff1673ffffffffffffffffffffffffffffffffffffffff1681526020019081526020015f205f8573ffffffffffffffffffffffffffffffffffffffff1673ffffffffffffffffffffffffffffffffffffffff1681526020019081526020015f2081905550801561135b578273ffffffffffffffffffffffffffffffffffffffff168473ffffffffffffffffffffffffffffffffffffffff167f8c5be1e5ebec7d5bd14f71427d1e84f3dd0314c0f7b2291e5b200ac8c7c3b925846040516113529190611ba6565b60405180910390a35b50505050565b5f73ffffffffffffffffffffffffffffffffffffffff168373ffffffffffffffffffffffffffffffffffffffff16036113b1578060025f8282546113a59190612227565b9250508190555061147f565b5f5f5f8573ffffffffffffffffffffffffffffffffffffffff1673ffffffffffffffffffffffffffffffffffffffff1681526020019081526020015f205490508181101561143a578381836040517fe450d38c00000000000000000000000000000000000000000000000000000000815260040161143193929190612334565b60405180910390fd5b8181035f5f8673ffffffffffffffffffffffffffffffffffffffff1673ffffffffffffffffffffffffffffffffffffffff1681526020019081526020015f2081905550505b5f73ffffffffffffffffffffffffffffffffffffffff168273ffffffffffffffffffffffffffffffffffffffff16036114c6578060025f8282540392505081905550611510565b805f5f8473ffffffffffffffffffffffffffffffffffffffff1673ffffffffffffffffffffffffffffffffffffffff1681526020019081526020015f205f82825401925050819055505b8173ffffffffffffffffffffffffffffffffffffffff168373ffffffffffffffffffffffffffffffffffffffff167fddf252ad1be2c89b69c2b068fc378daa952ba7f163c4a11628f55a4df523b3ef8360405161156d9190611ba6565b60405180910390a3505050565b5f7f8b73c3c69bb8fe3d512ecc4cf759cc79239f7b179b0ffacaa9a75d522b39400f7f00000000000000000000000000000000000000000000000000000000000000007f000000000000000000000000000000000000000000000000000000000000000046306040516020016115f4959493929190612369565b60405160208183030381529060405280519060200120905090565b606060ff5f1b831461162b5761162483611945565b90506116b6565b81805461163790611fc1565b80601f016020809104026020016040519081016040528092919081815260200182805461166390611fc1565b80156116ae5780601f10611685576101008083540402835291602001916116ae565b820191905f5260205f20905b81548152906001019060200180831161169157829003601f168201915b505050505090505b92915050565b5f6040517f190100000000000000000000000000000000000000000000000000000000000081528360028201528260228201526042812091505092915050565b5f5f5f7f7fffffffffffffffffffffffffffffff5d576e7357a4501ddfe92f46681b20a0845f1c1115611738575f6003859250925092506117d9565b5f6001888888886040515f815260200160405260405161175b94939291906123ba565b6020604051602081039080840390855afa15801561177b573d5f5f3e3d5ffd5b5050506020604051035190505f73ffffffffffffffffffffffffffffffffffffffff168173ffffffffffffffffffffffffffffffffffffffff16036117cc575f60015f5f1b935093509350506117d9565b805f5f5f1b935093509350505b9450945094915050565b5f60038111156117f6576117f56123fd565b5b826003811115611809576118086123fd565b5b03156119415760016003811115611823576118226123fd565b5b826003811115611836576118356123fd565b5b0361186d576040517ff645eedf00000000000000000000000000000000000000000000000000000000815260040160405180910390fd5b60026003811115611881576118806123fd565b5b826003811115611894576118936123fd565b5b036118d857805f1c6040517ffce698f70000000000000000000000000000000000000000000000000000000081526004016118cf9190611ba6565b60405180910390fd5b6003808111156118eb576118ea6123fd565b5b8260038111156118fe576118fd6123fd565b5b0361194057806040517fd78bce0c0000000000000000000000000000000000000000000000000000000081526004016119379190611c86565b60405180910390fd5b5b5050565b60605f611951836119b7565b90505f602067ffffffffffffffff81111561196f5761196e612281565b5b6040519080825280601f01601f1916602001820160405280156119a15781602001600182028036833780820191505090505b5090508181528360208201528092505050919050565b5f5f60ff835f1c169050601f8111156119fc576040517fb3512b0c00000000000000000000000000000000000000000000000000000000815260040160405180910390fd5b80915050919050565b5f81519050919050565b5f82825260208201905092915050565b8281835e5f83830152505050565b5f601f19601f8301169050919050565b5f611a4782611a05565b611a518185611a0f565b9350611a61818560208601611a1f565b611a6a81611a2d565b840191505092915050565b5f6020820190508181035f830152611a8d8184611a3d565b905092915050565b5f5ffd5b5f73ffffffffffffffffffffffffffffffffffffffff82169050919050565b5f611ac282611a99565b9050919050565b611ad281611ab8565b8114611adc575f5ffd5b50565b5f81359050611aed81611ac9565b92915050565b5f819050919050565b611b0581611af3565b8114611b0f575f5ffd5b50565b5f81359050611b2081611afc565b92915050565b5f5f60408385031215611b3c57611b3b611a95565b5b5f611b4985828601611adf565b9250506020611b5a85828601611b12565b9150509250929050565b5f8115159050919050565b611b7881611b64565b82525050565b5f602082019050611b915f830184611b6f565b92915050565b611ba081611af3565b82525050565b5f602082019050611bb95f830184611b97565b92915050565b5f5f5f60608486031215611bd657611bd5611a95565b5b5f611be386828701611adf565b9350506020611bf486828701611adf565b9250506040611c0586828701611b12565b9150509250925092565b5f60ff82169050919050565b611c2481611c0f565b82525050565b5f602082019050611c3d5f830184611c1b565b92915050565b5f60208284031215611c5857611c57611a95565b5b5f611c6584828501611b12565b91505092915050565b5f819050919050565b611c8081611c6e565b82525050565b5f602082019050611c995f830184611c77565b92915050565b5f60208284031215611cb457611cb3611a95565b5b5f611cc184828501611adf565b91505092915050565b5f7fff0000000000000000000000000000000000000000000000000000000000000082169050919050565b611cfe81611cca565b82525050565b611d0d81611ab8565b82525050565b5f81519050919050565b5f82825260208201905092915050565b5f819050602082019050919050565b611d4581611af3565b82525050565b5f611d568383611d3c565b60208301905092915050565b5f602082019050919050565b5f611d7882611d13565b611d828185611d1d565b9350611d8d83611d2d565b805f5b83811015611dbd578151611da48882611d4b565b9750611daf83611d62565b925050600181019050611d90565b5085935050505092915050565b5f60e082019050611ddd5f83018a611cf5565b8181036020830152611def8189611a3d565b90508181036040830152611e038188611a3d565b9050611e126060830187611b97565b611e1f6080830186611d04565b611e2c60a0830185611c77565b81810360c0830152611e3e8184611d6e565b905098975050505050505050565b5f602082019050611e5f5f830184611d04565b92915050565b611e6e81611c0f565b8114611e78575f5ffd5b50565b5f81359050611e8981611e65565b92915050565b611e9881611c6e565b8114611ea2575f5ffd5b50565b5f81359050611eb381611e8f565b92915050565b5f5f5f5f5f5f5f60e0888a031215611ed457611ed3611a95565b5b5f611ee18a828b01611adf565b9750506020611ef28a828b01611adf565b9650506040611f038a828b01611b12565b9550506060611f148a828b01611b12565b9450506080611f258a828b01611e7b565b93505060a0611f368a828b01611ea5565b92505060c0611f478a828b01611ea5565b91505092959891949750929550565b5f5f60408385031215611f6c57611f6b611a95565b5b5f611f7985828601611adf565b9250506020611f8a85828601611adf565b9150509250929050565b7f4e487b71000000000000000000000000000000000000000000000000000000005f52602260045260245ffd5b5f6002820490506001821680611fd857607f821691505b602082108103611feb57611fea611f94565b5b50919050565b7f416d6f756e74206d757374206265203e203000000000000000000000000000005f82015250565b5f612025601283611a0f565b915061203082611ff1565b602082019050919050565b5f6020820190508181035f83015261205281612019565b9050919050565b7f4e487b71000000000000000000000000000000000000000000000000000000005f52601160045260245ffd5b5f61209082611af3565b915061209b83611af3565b92508282026120a981611af3565b915082820484148315176120c0576120bf612059565b5b5092915050565b7f4e6f7420656e6f75676820746f6b656e73206c656674000000000000000000005f82015250565b5f6120fb601683611a0f565b9150612106826120c7565b602082019050919050565b5f6020820190508181035f830152612128816120ef565b9050919050565b7f4e487b71000000000000000000000000000000000000000000000000000000005f52601260045260245ffd5b5f61216682611af3565b915061217183611af3565b9250826121815761218061212f565b5b828204905092915050565b7f496e73756666696369656e7420455448000000000000000000000000000000005f82015250565b5f6121c0601083611a0f565b91506121cb8261218c565b602082019050919050565b5f6020820190508181035f8301526121ed816121b4565b9050919050565b5f6121fe82611af3565b915061220983611af3565b925082820390508181111561222157612220612059565b5b92915050565b5f61223182611af3565b915061223c83611af3565b925082820190508082111561225457612253612059565b5b92915050565b5f60408201905061226d5f830185611b97565b61227a6020830184611b97565b9392505050565b7f4e487b71000000000000000000000000000000000000000000000000000000005f52604160045260245ffd5b5f60c0820190506122c15f830189611c77565b6122ce6020830188611d04565b6122db6040830187611d04565b6122e86060830186611b97565b6122f56080830185611b97565b61230260a0830184611b97565b979650505050505050565b5f6040820190506123205f830185611d04565b61232d6020830184611d04565b9392505050565b5f6060820190506123475f830186611d04565b6123546020830185611b97565b6123616040830184611b97565b949350505050565b5f60a08201905061237c5f830188611c77565b6123896020830187611c77565b6123966040830186611c77565b6123a36060830185611b97565b6123b06080830184611d04565b9695505050505050565b5f6080820190506123cd5f830187611c77565b6123da6020830186611c1b565b6123e76040830185611c77565b6123f46060830184611c77565b95945050505050565b7f4e487b71000000000000000000000000000000000000000000000000000000005f52602160045260245ffdfea2646970667358221220340e34d60bc5fb7f5eefa2e91e2402fc4255a45ccf225fd1a470c7baef6075f564736f6c63430008210033","linkReferences":{}},"methodIdentifiers":{"DOMAIN_SEPARATOR()":"3644e515","TOTAL_SUPPLY()":"902d55a5","allowance(address,address)":"dd62ed3e","approve(address,uint256)":"095ea7b3","balanceOf(address)":"70a08231","buyTokens(uint256)":"3610724e","decimals()":"313ce567","eip712Domain()":"84b0196e","getPrice()":"98d5fdca","name()":"06fdde03","nonces(address)":"7ecebe00","owner()":"8da5cb5b","permit(address,address,uint256,uint256,uint8,bytes32,bytes32)":"d505accf","remainingTokens()":"bf583903","renounceOwnership()":"715018a6","symbol()":"95d89b41","totalSold()":"9106d7ba","totalSupply()":"18160ddd","transfer(address,uint256)":"a9059cbb","transferFrom(address,address,uint256)":"23b872dd","transferOwnership(address)":"f2fde38b","withdraw()":"3ccfd60b"},"id":68}